:0200000280007C
:10000000E89000204D01080049010800490108005E
:1000100049010800490108004901080000000000EA
:10002000000000000000000000000000490108007E
:1000300049010800000000004901080049010800CA
:100040004901080049010800490108004901080068
:100050004901080049010800490108004901080058
:10006000490108004901080000000000490108009A
:10007000490108004901080049010800000000008A
:10008000000000004901080049010800490108007A
:100090004901080049010800490108004901080018
:1000A000490108000000000049010800450208005D
:1000B00049010800490108004901080049010800F8
:1000C00049010800490108004901080049010800E8
:1000D00049010800490108004901080049010800D8
:1000E00049010800490108004901080049010800C8
:1000F0004901080010B5054C237833B9044B13B1FE
:100100000448AFF300800123237010BD6800002075
:1001100000000000B81E080008B5064B1BB10648D9
:100120000649AFF300800648036813B1054B03B1DD
:10013000984708BD00000000B81E08006C000020B1
:10014000B81E080000000000FEE70000124B134A32
:1001500010B593421C4601D0002301E0104B07E08C
:100160001049D0188842F9D2E158D1500433F7E74A
:100170000D4A934203D2002243F8042BF8E70B4BBD
:100180000B4A23F0604323F07F039360094B9847A9
:10019000094B9847FEE700BFB81E0800000000208A
:1001A0006800002068000020E40000200000080033
:1001B00000ED00E02D110800211008001A4A4FF44C
:1001C00080631360C2F80032184B1A6AD20102D55C
:1001D000174A1A6205E0174A1A629A6ED007FCD5D0
:1001E000F6E7996E114AC903FBD5116B21F00301A3
:1001F00041F0010111639A6E1207FCD50E490B4ABA
:1002000091629A6E9007FCD5084A112111639A6E8B
:100210001107FCD5054A122111639A6E1207FCD50D
:10022000064A074B1A607047000A0E4000060E404F
:100230000908370109083700013F0D2000BD0105FD
:100240000000002008B5024B1B68984708BD00BF9E
:1002500084000020032A00F29480DFE802F0023BD1
:100260005775032800F28D80DFE800F0020E1C288D
:10027000444B9A6910055CBF4FF400621A61012378
:1002800003FA01F1404B0AE03E4B9A69D2045CBF8D
:100290004FF480521A61012303FA01F13B4B1960BC
:1002A00059617047374B9A6990045CBF4FF4005214
:1002B0001A61012303FA01F1354BF0E7314B9A69DA
:1002C00052045CBF4FF480421A61012303FA01F12A
:1002D000304BE4E7032854D8DFE800F002070C11A4
:1002E000012303FA01F1284B0DE0012303FA01F188
:1002F000264B08E0012303FA01F1254B03E001231B
:1003000003FA01F1234B196019617047032838D8AB
:10031000DFE800F002070C11012303FA01F11A4B88
:100320000DE0012303FA01F1184B08E0012303FA61
:1003300001F1174B03E0012303FA01F1154B59605A
:100340001A6F22EA01011BE003281AD8DFE800F047
:1003500002070C11012303FA01F10B4B0DE00123FD
:1003600003FA01F1094B08E0012303FA01F1084BFC
:1003700003E0012303FA01F1064B59601A6F1143A0
:100380001967704700060E40000E0E4000100E4028
:1003900000120E4000140E40032817D8DFE800F0CA
:1003A00002070C11012303FA01F1094B0DE00123AF
:1003B00003FA01F1074B08E0012303FA01F1064BB0
:1003C00003E0012303FA01F1044B5966704700BFB3
:1003D000000E0E4000100E4000120E4000140E40A1
:1003E000032817D8DFE800F002070C11012303FAF5
:1003F00001F1094B0DE0012303FA01F1074B08E07D
:10040000012303FA01F1064B03E0012303FA01F192
:10041000044B1966704700BF000E0E4000100E40DE
:1004200000120E4000140E40E2B1012A34D103281C
:1004300032D8DFE800F002070C11012303FA01F1C2
:10044000164B0DE0012303FA01F1154B08E00123DF
:1004500003FA01F1134B03E0012303FA01F1124BFC
:1004600019637047032817D8DFE800F002070C1162
:10047000012303FA01F1094B0DE0012303FA01F115
:10048000074B08E0012303FA01F1064B03E00123C7
:1004900003FA01F1044B5963704700BF000E0E4090
:1004A00000100E4000120E4000140E4003280FD81A
:1004B000DFE800F002040608074B04E0074B02E007
:1004C000074B00E0074BD86BC84000F001007047B5
:1004D0004FF0FF30704700BF000E0E4000100E407E
:1004E00000120E4000140E4010B5084C2368DB07C4
:1004F00009D42046064B984728B1064B064A2046A9
:100500001A60064B9847034810BD00BF8C000020BE
:10051000FD10080088000020381E0800191108008E
:1005200030B50F4DADF5017D0446A8476846A84794
:100530004FF40072694620460A4B984768460A4BBA
:10054000984720460021094B9847094B9847036874
:1005500000211B68984720460DF5017D30BD00BF86
:10056000A908080099110800AB080800EB0808006A
:10057000E904080038B50446044D18B1A8472046E0
:10058000034B98472046A847204638BDAB080800D3
:10059000F51008002DE9F04F012B8BB00390884631
:1005A000174603D12F492025082402E007252E49AC
:1005B0002C462E4B05A89847089B93FBF4F304FBAD
:1005C00003F9149B03F1FF3A46461AF8013F002B4A
:1005D00044D0202B1FD02D2B3AD0A3F13002092A72
:1005E00002D8A3F12E0217E03F2B33D02E2B33D0AD
:1005F000A3F14102192A02D8A3F1330206E0A3F1C4
:100600006102192A94BFA3F153020C220A2B03D1D1
:100610002F44FFB2D8E70022624392FBF9F309FBB3
:1006200013216B435FFA84FBDAB2DFF84CC005A8F4
:10063000C9B25B460095E047314605A83A460C4BE7
:1006400098475E4405A803990A4B9847F6B2BCE761
:100650000122E1E70C22DFE70D22DDE70BB0BDE868
:10066000F08F00BFC21B0800801A08009506080022
:10067000B9060800CD060800BF06080010B5044BF7
:1006800004469847036821469B68984710BD00BF01
:10069000E904080030B50D784C7800228270C270F1
:1006A00005714471027042700A780231C26011F81B
:1006B000012C8160026130BD01704270704703718E
:1006C0009DF800308170C270437170472DE9F84386
:1006D0000446884600266379F5B2AB4226D900234A
:1006E000DAB203F10109237993421DD92378A7785F
:1006F000E16817441A44E37894F801E02B4401FBC5
:100700000373082193FBF1F3A16807F00707CB5CA3
:10071000AE443B41D1B203F0010340465FFA8EF292
:10072000034FB8474B46DBE70136D4E7BDE8F88313
:10073000AD08080000207047002070470020704777
:10074000002070472DE9F04F8BB001900024474FF7
:10075000474E14F807B056F824A0464B5846514669
:10076000002200939847444DDFF834C114F80590F7
:100770005CF82480009B4846CDF800C0414600222A
:10078000984758465146DFF81CA1D0474846414695
:10079000D0470134DDF800C0042CB846B146AA4663
:1007A000E346D4D1354F0C20B84705460C20B84756
:1007B00004460C20B84706460C20B8470122227098
:1007C0000322002332706660B4600222706086608B
:1007D000019E6C60A5602B700270A86045601C468D
:1007E000274B59F82410009318F804009847009BF1
:1007F00007465BF824101AF804009847002340EAE3
:100800004700F360C2B22B461978914201D1F360E0
:1008100002E05B68AB42F7D1F368CBB9194F2246CF
:10082000194B03A8194998473A68D3070BD438469F
:10083000174A904738B1114A08209047154A164B7D
:100840001060384698471348012103AA134B984774
:10085000019A002002EB44030134042C988006F135
:100860000406BDD10BB0BDE8F08F00BFB01D08007D
:10087000DC1D080055020800D81D08007911080089
:10088000AD0408009400002085130800841D0800B2
:10089000FD1008009000002019110800910F0800B9
:1008A000A01D080099030800704770477F2910B504
:1008B0001AD81F2A18D8C2F11F04C1F17F0102F013
:1008C0000702E410012B01EBC411C2F1070204D1AD
:1008D0009340425C1343435410BD012303FA02F2D8
:1008E000435C23EA0202425410BD002301290CBFDD
:1008F000FF220022C2540133B3F5007FF6D17047C6
:1009000000207047002070470020704710B502207B
:10091000224C17210122A047022018210122A047C2
:10092000022019210122A04702201D210122A047F7
:10093000022015210122A047012202201621A047F2
:10094000174C02201721A04702201821A04702209F
:100950000146A04702201D21A04702201521A047E3
:1009600002201621A0470F4C022017210022A04789
:10097000022018210022A047022019210122A047AD
:1009800002201D210022A047022015210022A0479D
:10099000022016210122A047002010BD55020800A8
:1009A000E103080029040800F8B502200022274CC2
:1009B0000F461921A047022018210122A047002636
:1009C000022018210022A0473B680220F34003F0D8
:1009D0000102172182F00102A047013602201821EE
:1009E0000122A047202E194DEAD102201821002211
:1009F000A847022019210122A8470220162100221F
:100A0000A847022015210122A84700250220152110
:100A10000022A047BA8802202A4102F001021D21CB
:100A200082F00102A0470135022015210122A047D2
:100A3000102D064EEAD1022015210022B0470220D7
:100A400016210122B0470020F8BD00BF290408008C
:100A5000054B02221A6003F558234FF0807203F50C
:100A6000C0635A610020704700800040002070473A
:100A700038B5044608784968164D2071A1600122F6
:100A8000A8472079A168144B9847144B2079A16896
:100A900001229847002019210222A84700201A218C
:100AA0000222A84700201B210222A8470C4B4FF02E
:100AB00080721A610B4B02221A600B4A00205A60A6
:100AC0001A6B42F4205242F002021A6301221A60A9
:100AD00038BD00BF55020800E103080029040800E2
:100AE00000060E400080004011000E0019B9034BB3
:100AF0001B699B05FBD50020704700BF00800040AC
:100B000038B504460D460E4B1B699905FBD5E268C6
:100B10002AB90C4B2079A16898470123E3602A8801
:100B2000074BDA601A699205FCD56D682DB92079FA
:100B3000A1680122034B9847E560002038BD00BF43
:100B40000080004029040800002070470020704702
:100B50000020704738B5094C236813F001050AD10D
:100B60002046074B984730B1064A074B2046136092
:100B7000064BD5609847034838BD00BFA800002049
:100B8000FD10080098000020181E08001911080028
:100B90002DE9F84F02208F4C1C210122A047012093
:100BA00002461921A0478C4C02201C21A04701209D
:100BB0001921A047894F002219210120B847884EEA
:100BC0000820B0474FF002091A23864D436080F891
:100BD00000900446A847036821461B689847DFF841
:100BE00008A22046D047012002461921B84700221A
:100BF0001C214846B8470820B0474FF0010BAE23F0
:100C00000380C0F804B00446A847036821469B68E7
:100C10009847D5232380A847036821469B689847B7
:100C2000A0232380A847036821469B689847A823F0
:100C30002380A84703683F269B6821469847268063
:100C4000A847036821469B689847D3232380A84779
:100C500003684FF000089B6821469847A4F800807D
:100C6000A847036821469B68984740232380A847EC
:100C7000036821469B689847AD232380A8470368F3
:100C800021469B6898478E232380A8470368214606
:100C90009B689847D8232380A847036821469B6810
:100CA000984705232380A847036821469B689847F7
:100CB000A1232380A847036821469B689847C8233F
:100CC0002380A847036821469B689847DA2323803E
:100CD000A847036821469B68984712232380A847AA
:100CE000036821469B68984791232380A84703689F
:100CF00021469B6898472680A847036821469B6841
:100D000098472680A847036821469B689847268015
:100D1000A847036821469B6898472680A847036830
:100D200021469B68984781232380A8470368214672
:100D30009B6898478F232380A847036821469B68B8
:100D40009847D9232380A847036821469B68984782
:100D5000D2232380A847036821469B689847DB235A
:100D60002380A847036821469B6898473423238043
:100D7000A847036821469B689847A4232380A84777
:100D8000036821469B689847A6232380A8470368E9
:100D900021469B68984720232380A8470368214663
:100DA0009B689847A4F80080A847036821469B6881
:100DB0009847A8470368414642461B6998474846FA
:100DC0001C215A46B8474FF48466A4F80080A84610
:100DD0000CE000BF55020800E103080029040800E8
:100DE00079110800550B080089110800C0470368F5
:100DF00021469B689847013E0C4DF7D1A8470368F0
:100E000031461B693246984732461C210220B847BA
:100E1000AF2323806660A847036821469B689847F4
:100E20002046D0473046BDE8F88F00BF550B08007C
:100E30002DE9F04102200122204B88461C219847D1
:100E40001F4B08209847002303800123044643607A
:100E50004FF405751B4FB847036821469B689847B8
:100E6000013DF7D118F80530238040F2FF139D4271
:100E700004BF00236360B847036821469B68984716
:100E800005F07F037F2B09D00135B5F5007FE9D14F
:100E900020460D4B98470020BDE8F08140F2FF133B
:100EA0009D42F1D00426FF232380B84703682146E2
:100EB0009B689847013EF6D1E6E700BF2904080089
:100EC00079110800550B08008911080010B5084C6D
:100ED0002368DB0709D42046064B984728B1064B08
:100EE000064A20461A60064B9847034810BD00BFCB
:100EF000B0000020FD100800AC000020F81D080024
:100F000019110800F0B50646ADF5077D0C461F46E1
:100F1000B2B900292BD103684FF6FF729A80154DA4
:100F20001F60A847036821461B689847A8470368C5
:100F300031689B689847A84703685B68984716E044
:100F4000A9B90D4B03AD06A898470C493A460C4B7E
:100F50002846984721462246234606A80095094C74
:100F6000A04706A8084B984706A8084B98470DF5D8
:100F7000077DF0BDCD0E080021050800501E0800B9
:100F800085130800950508007D0608007505080012
:100F900030B51546ADF5037D0C4631B902A80D4BB1
:100FA0009847009502A8214607E001290FD102A821
:100FB000084B9847009502A800210B460A46064CAC
:100FC000A04702A8054B984702A8054B98470DF586
:100FD000037D30BD21050800950508007D06080049
:100FE0007505080010B5094C2368DB070BD42046B3
:100FF000074B984738B1074B08209847064B1860B5
:101000002046064B9847044810BD00BF94000020BE
:10101000FD10080079110800900000201911080047
:10102000F0B5234BADF5037D224E9847B047002124
:101030000A46214D214BA847214B02A89847214B36
:101040000021009302A80B460A461F4CA0471F4CE4
:101050001F4B02A8984723682F4613F0010F1D4D20
:1010600008D120461C4B984720B11C4B20462B60D2
:101070001B4B98472B6800211B6816489847B047C0
:1010800000210A46174BB84700200821164B0122C1
:10109000984700200821154B98470020082101227D
:1010A000134CA047002008210246A047F5E700BFE7
:1010B000BD010800E50F0800050F0800EFBEADDE1A
:1010C00021050800551E080095050800D0000020E5
:1010D0007D060800B4000020FD100800C01D0800B7
:1010E000191108005555AAAA55020800E103080085
:1010F0002904080008B100F047B8704708B5036834
:10110000DB0707D443780BB100F009F801234370E3
:10111000184608BD002008BD01230360704708B5CC
:10112000062000F013F9012000F0A8FC70B50E4B6A
:101130000E4D0024ED1AAD101E46AC4204D056F8F8
:10114000242090470134F8E700F0A6FE084D094B33
:101150000024ED1AAD101E46AC4204D056F82420EF
:1011600090470134F8E770BDA41E0800A41E0800D3
:10117000A81E0800A41E0800024B0146186800F0D3
:1011800059B800BF64000020024B0146186800F007
:101190000DB800BF6400002010B50023934203D0B7
:1011A000CC5CC4540133F9E710BD000030B5002910
:1011B0003CD051F8042C0B1F1D49002AB8BF9B18C6
:1011C0000A680C4612B95A600B6030BD93420DD2CA
:1011D00019685818904203D15A581144426819604E
:1011E0005A60236030BD994203D80A4651680029ED
:1011F000F9D1146815199D420AD11B682344D018EF
:101200008842136012D10868034413604B680CE0F5
:1012100002D90C23036030BD18681C188C4203D11E
:101220000C684968204418605960536030BD00BFA5
:10123000D800002070B5CD1C25F0030508350C2D15
:1012400038BF0C25002D06463FDB8D423DD3214B98
:101250001C6818462146A1B10B685B1B0ED40B2BF2
:1012600003D90B60CC18CD501FE08C4202D16268CC
:1012700002601AE04B6863600C4616E00C46496851
:10128000E9E7154C23681BB9304600F027F82060C9
:101290002946304600F022F8431C014615D0C41CF4
:1012A00024F0030484420AD1256004F10B00231DBD
:1012B00020F00700C31A0BD05A42E25070BD3046EE
:1012C000611A00F00BF80130EED10C2333600020DE
:1012D00070BD00BFD8000020D400002038B5064CF7
:1012E000002305460846236000F0AEFB431C02D1F4
:1012F000236803B12B6038BDE00000201F2938B5FA
:1013000005460C4604D9162303604FF0FF3038BD64
:10131000426C12B152F821304BB9284600F030F837
:10132000224601462846BDE8384000F017B8012B98
:101330000AD0591C03D116230360012038BD0025B3
:1013400042F8245020469847002038BD024B014601
:101350001868FFF7D3BF00BF6400002038B5074C02
:101360000023054608461146236000F065FB431C38
:1013700002D1236803B12B6038BD00BFE00000201C
:1013800000F052BB0EB400B54FF402719CB0ADF842
:1013900014106FF00041049107914FF6FF711DABDF
:1013A000ADF81610084953F8042B0290069008680F
:1013B00002A9019300F066F8029B00221A701CB08B
:1013C0005DF804EB03B07047640000202DE9F0479E
:1013D0008D688146AB420C4692461F4643D38B89AB
:1013E00013F4906F3DD0266809690222C1EB06080C
:1013F000666906EB460696FBF2F608F101023A44EE
:10140000964238BF16465B050FD53146FFF712FFEF
:10141000054698B121694246FFF7BEFEA38923F431
:10142000906343F08003A38113E0324600F0C5FAD5
:10143000054670B948462169FFF7B8FE0C23C9F884
:101440000030A3894FF0FF3043F04003A381BDE893
:10145000F087256166614544C8EB06062560A660F5
:101460003D46AF4200D23D462A462068514600F034
:1014700089FAA36800205B1BA36023681D442560D4
:10148000BDE8F0872DE9F0439DB003938B890746B3
:101490001C060D4616460CD50B6953B94021FFF7C3
:1014A000C9FE2860286110B90C233B60C7E04023C7
:1014B0006B610023099320238DF8293030238DF8A8
:1014C0002A3033461C4613F8012B1AB9B4EB06092F
:1014D0000FD002E0252AF5D1F8E7384629463246F2
:1014E0004B46FFF773FF013000F0A480099B4B448B
:1014F00009932378002B00F09D8000234FF0FF32EA
:1015000004930793059206938DF853301A9304F1D0
:1015100001094D4E4C4630462178052200F024FA50
:1015200009F10109049B28B1861B0120B040034347
:101530000493EEE7D90644BF20228DF853201A0702
:1015400044BF2B228DF8532022782A2A02D0079BF1
:1015500021460EE0039A111D12680391002A01DB57
:10156000079204E0524243F00203079204930134CD
:101570000AE00C4622780131303A092A03D80A20C1
:1015800000FB0323F5E7079323782E2B19D163780B
:101590002A2B09D1039B02341A1D1B680392002BCE
:1015A000B8BF4FF0FF330BE0611C00230C462278DC
:1015B0000131303A092A03D80A2000FB0323F5E75A
:1015C0000593224E21783046032200F0CDF930B148
:1015D000861B4020B040049B0134034304932178D0
:1015E0001B480622661C8DF8281000F0BDF988B152
:1015F000184B33B9039B073323F0070308330393D6
:1016000014E003AB0093384604A92A46124BAFF30B
:10161000008007E003AB0093384604A92A460E4B2E
:1016200000F08EF8B0F1FF3F804603D0099B4344A1
:10163000099346E7AB895B0601D4099801E04FF0B6
:10164000FF301DB0BDE8F083641E08006A1E08006C
:101650006E1E080000000000CD1308002DE9F843BD
:1016600015461F468A680B6906469A42A8BF13466C
:101670002B6091F843200C46DDF820800AB101333D
:101680002B602368990602D52B6802332B602368F0
:1016900013F006091DD094F843302268003318BFB8
:1016A000012392061FD5E118302081F843005A1C0F
:1016B00094F845102244023382F8431013E0304678
:1016C000394604F119020123C047013007D009F15E
:1016D0000109E2682B68D31A9945F0DBDBE74FF08C
:1016E000FF30BDE8F8833046394604F14302C04775
:1016F0000130F4D023682A6803F00603E168042B64
:1017000008BFC2EB01052369A2680CBF25EAE57595
:1017100000259A42C4BFC3EB0203ED184FF0000945
:10172000A9450ADA3046394604F11A020123C047B6
:101730000130D4D009F10109F2E70020BDE8F883B7
:101740002DE9FF470E7E80466E2E0C4691469A4646
:101750000C9D01F1430000F0A58011D8632E22D02A
:1017600009D8002E00F0AF80582E40F0BF8081F8DD
:1017700045607B4A4FE0642E1ED0692E1CD0B5E038
:10178000732E00F0A48009D86F2E2BD0702E40F05D
:10179000AD800B6843F020030B6038E0752E21D03C
:1017A000782E34D0A2E02B6801F142071A1D1B6885
:1017B0002A6081F842309DE022682B6812F0800F89
:1017C00003D01A1D2A601D6805E05106F9D51A1DBF
:1017D0002A60B3F90050002D39DA2D236D4284F8C8
:1017E000433034E022682B6812F0800F03D01A1DBA
:1017F0002A601D6804E05206F9D51A1D2A601D886A
:10180000237E574A6F2B14BF0A2308231BE078233B
:10181000544A84F845302368296813F0800F01F199
:1018200004062E6001D00D6802E05F06FBD50D882E
:10183000DE0744BF43F0200323601DB9236823F073
:10184000200323601023002184F8431001E0444A60
:101850000A236668002EA66003DB216821F00401DC
:10186000216005B96EB104F14201B5FBF3F603FB4B
:101870001655555D0F4601F801593546002EF4D135
:1018800000E00746082B0AD12368DD0707D5626808
:1018900023699A4203DC302307F8013C013FC01B57
:1018A00020612CE009682B6811F0800F626904D078
:1018B000191D29601B681A6005E04906F8D5191D35
:1018C00029601B681A8000232361074617E02B68F4
:1018D0001A1D2A601F68384600F095F86368206179
:1018E000984288BF23612369636005E004F14207E1
:1018F00084F8426001232361002384F84330CDF84B
:1019000000A04046214603AA4B46FFF7A7FE013040
:1019100002D14FF0FF301FE0404649463A46236966
:10192000D0470130F5D023689B0705D4E068039BBE
:101930009842B8BF18460FE00025E268039BD31A0F
:101940009D42F3DA4046494604F119020123D0478B
:101950000130DED00135F0E704B0BDE8F08700BF0C
:10196000751E0800861E080010B5C9B202449042D8
:10197000034605D01C7801308C42F8D1184610BDC2
:10198000002010BD814270B501D300230EE08C18F9
:10199000A042FAD28518134613F1FF3305D3514202
:1019A0006618F65C2944CE54F6E770BD934203D026
:1019B000CC5CC4540133F9E770BDF8B50646144653
:1019C0000D4621B91146BDE8F840FFF733BC1AB9FE
:1019D000FFF7ECFB2046F8BD00F01DF8A0420ED248
:1019E00030462146FFF726FC074650B129462246DD
:1019F000FFF7D2FB30462946FFF7D8FB01E0284627
:101A0000F8BD3846F8BD034613F8012B002AFBD178
:101A1000181A0138704751F8040C002802DA04390A
:101A20000B58184404387047024B58221A604FF084
:101A3000FF307047E0000020024B58221A604FF040
:101A4000FF307047E0000020094A136863B1184472
:101A50006946884202D8106018467047054B0C2230
:101A60001A604FF0FF307047034B1360EFE700BF81
:101A7000DC000020E000002000000020FEE700BFA6
:101A80004028000000000000008000000E82C3819A
:101A9000F0A00000094226431090000009018221B5
:101AA0003898009F0401019140A40080848010F9BF
:101AB00041A6000083E0E3403C9C0000800700203A
:101AC00000C03E3CC70C002000C010920C0CC0109F
:101AD00060A0088C0407207110BC081283011091CB
:101AE00008920411010090880892048EC020607949
:101AF000709C0030000203232080000806020020B2
:101B00002080183F0901009110AC24040981005184
:101B100010D43E040E87803010D402828444904852
:101B200008AA1C828344608808AA00000000000004
:101B300000800000060300400080140C8984C2F07D
:101B400048A22C12498421214892241187834020E5
:101B5000248A128900429010248612860041601067
:101B6000588200000000000000800000110000000A
:101B7000008054128A0700000080540C0602000006
:101B800000802A040201000000802A0A810000006F
:101B900000801489C00300000080FFFFFFFFFFFFEB
:101BA000FFFFFFFFFFFFFFFFFFFFFFFFFFFFFFFF45
:101BB000FFFFFFFFFFFFFFFFFFFFFFFFFFFFFFFF35
:101BC000FFFF38400000000000000000000000009F
:101BD0000000000000000000000000000000000005
:101BE000000000183C7E300000001C3C2230000049
:101BF000001E6610300000001A6608380000001849
:101C0000601E3800000018603038000000186020A6
:101C1000380000001830203800000018306038000C
:101C200000001830603400000018186034007C0098
:101C300018186034003E0018186034000000180CBA
:101C40006034000000180C6032000000180C603294
:101C50000000001806603200000018066032000024
:101C600000180660320000001806607E00000018B0
:101C700006627E000000180622300000007E7E22F0
:101C8000300000007E7E1C300000000000000000DC
:101C90000000000000000000000000000000000044
:101CA0000000000000000000000000000000000034
:101CB0000000000000000000007E007E18180000F8
:101CC0004640622C243C0006206046423C00062030
:101CD00060464266001E10304642660030103046B4
:101CE00042660020181846426600201818464266D0
:101CF0000060081846426000600C1846646000608E
:101D00000C0C4658600060040C4640600060040CF7
:101D10004640300060060C2C403000601E0C18401D
:101D2000180060260C3440180060420C6240180015
:101D300060420C6240180060420C62401800604231
:101D40000C6240180060421C6240180062420E6241
:101D500044000022420C6224000022240C34241887
:101D6000001C180C181818000000000000000000EB
:101D70000000000000000000000000000000000063
:101D800000000000496E76616C69642073746174B0
:101D90006520656E636F6465722025640000000035
:101DA0000E0000000000000002000000060000001D
:101DB000010003030000000000000000000000001C
:101DC0004507080035070800390708003D070800E7
:101DD0004107080000000000000303031A00000090
:101DE0000F000000010000000300000000000000E0
:101DF00000000000000000000D09080001090800B3
:101E0000A9090800050908000909080000000000E8
:101E10000000000000000000710A0800510A0800DC
:101E2000010B08006D0A0800ED0A08000000000020
:101E30000000000000000000910B0800490B0800A2
:101E4000310E08004D0B0800510B08000000000087
:101E5000307825580068656C6C6F0A776F726C6417
:101E600021004300232D302B2000686C4C00656658
:101E700067454647003031323334353637383941DB
:101E800042434445460030313233343536373839F1
:101E90006162636465660000F8B500BFF8BC08BC09
:101EA0009E46704719010800F8B500BFF8BC08BC91
:081EB0009E467047F500080092
:101EB80000093D00000000000000000000000000D4
:101EC800000000000000000000000000000000000A
:101ED80000000000621E0800000000000000000072
:101EE80000000000000000000000000000000000EA
:101EF80000000000000000000000000000000000DA
:101F080000000000000000000000000000000000C9
:081F180000000000040000209D
:040000038000000079
:00000001FF
