S00F00004F7368537465702E737265634F
S214080000C89000204D010800490108004901080071
S21408001049010800490108004901080000000000DD
S2140800200000000000000000000000004901080071
S21408003049010800000000004901080049010800BD
S214080040490108004901080049010800490108005B
S214080050490108004901080049010800490108004B
S214080060490108004901080000000000490108008D
S214080070490108004901080049010800000000007D
S214080080000000004901080049010800490108006D
S214080090490108004901080049010800490108000B
S2140800A04901080000000000490108004502080050
S2140800B049010800490108004901080049010800EB
S2140800C049010800490108004901080049010800DB
S2140800D049010800490108004901080049010800CB
S2140800E049010800490108004901080049010800BB
S2140800F04901080010B5054C237833B9044B13B1F1
S2140801000448AFF300800123237010BD6800002068
S214080110000000000412080008B5064B1BB106488C
S2140801200649AFF300800648036813B1054B03B1D0
S214080130984708BD00000000041208006C00002064
S2140801400412080000000000FEE70000124B134AE5
S21408015010B593421C4601D0002301E0104B07E07F
S2140801601049D0188842F9D2E158D1500433F7E73D
S2140801700D4A934203D2002243F8042BF8E70B4BB0
S2140801800B4A23F0604323F07F039360094B98479C
S214080190094B9847FEE700BF04120800000000203D
S2140801A06800002068000020C40000200000080046
S2140801B000ED00E0D10C0800390C08001A4A4FF48C
S2140801C080631360C2F80032184B1A6AD20102D54F
S2140801D0174A1A6205E0174A1A629A6ED007FCD5C3
S2140801E0F6E7996E114AC903FBD5116B21F0030196
S2140801F041F0010111639A6E1207FCD50E490B4AAD
S21408020091629A6E9007FCD5084A112111639A6E7E
S2140802101107FCD5054A122111639A6E1207FCD500
S214080220064A074B1A607047000A0E4000060E4042
S2140802300908370109083700013F0D2000BD0105F0
S2140802400000002008B5024B1B68984708BD00BF91
S21408025084000020032A76D8DFE802F0021E3A5807
S214080260032870D8DFE800F002070E13012303FA0C
S21408027001F1354B03E0012303FA01F1334B196012
S21408028059617047012303FA01F1314BF7E701235F
S21408029003FA01F12F4BF2E7032854D8DFE800F001
S2140802A002070C11012303FA01F1274B0DE0012385
S2140802B003FA01F1254B08E0012303FA01F1244B68
S2140802C003E0012303FA01F1224B19601961704714
S2140802D0032838D8DFE800F002070C11012303FAD8
S2140802E001F1194B0DE0012303FA01F1174B08E061
S2140802F0012303FA01F1164B03E0012303FA01F187
S214080300144B59601A6F22EA01011BE003281AD819
S214080310DFE800F002070C11012303FA01F10A4B8B
S2140803200DE0012303FA01F1084B08E0012303FA64
S21408033001F1074B03E0012303FA01F1054B59606D
S2140803401A6F114319677047000E0E4000100E40D2
S21408035000120E4000140E40032817D8DFE800F0FD
S21408036002070C11012303FA01F1094B0DE00123E2
S21408037003FA01F1074B08E0012303FA01F1064BE3
S21408038003E0012303FA01F1044B1966704700BF26
S214080390000E0E4000100E4000120E4000140E40D4
S2140803A0E2B1012A34D1032832D8DFE800F0020788
S2140803B00C11012303FA01F1164B0DE0012303FA91
S2140803C001F1154B08E0012303FA01F1134B03E092
S2140803D0012303FA01F1124B19637047032817D853
S2140803E0DFE800F002070C11012303FA01F1094BBC
S2140803F00DE0012303FA01F1074B08E0012303FA95
S21408040001F1064B03E0012303FA01F1044B59639B
S214080410704700BF000E0E4000100E4000120E403F
S21408042000140E4010B5084C2368DB0709D4204694
S214080430064B984728B1064B064A20461A60064BD4
S2140804409847034810BD00BF8C000020A10C080088
S21408045088000020C80F0800BD0C080030B50F4DF6
S214080460ADF5017D0446A8476846A8474FF40072D4
S214080470694620460A4B984768460A4B98472046DE
S2140804800021094B9847094B9847036800211B68C9
S214080490984720460DF5017D30BD00BF6905080068
S2140804A03D0D08006B050800AB050800250408008C
S2140804B008B5034608461946014B984708BD00BFCD
S2140804C00105080010B5044B044698470368214602
S2140804D09B68984710BD00BF2504080030B50D7806
S2140804E04C7800228270C2700571447102704270A6
S2140804F00A780231C26011F8012C8160026130BDB1
S2140805002DE9F8430446884600266379F5B2AB42DF
S21408051026D90023DAB203F10109237993421DD9BB
S2140805202378A778E16817441A44E37894F801E03A
S2140805302B4401FB0373082193FBF1F3A16807F032
S2140805400707CB5CAE443B41D1B203F001034046FB
S2140805505FFA8EF2034FB8474B46DBE70136D4E71F
S214080560BDE8F8836D05080070477047802910B508
S2140805701AD81F2A18D8C2F11F04C1F1800102F048
S2140805800702E410012B01EBC411C2F1070204D1E3
S2140805909340425C1343435410BD012303FA02F20E
S2140805A0435C23EA0202425410BD002301290CBF13
S2140805B0FF220022C2540133B3F5007FF6D17047FC
S2140805C000207047002070470020704710B50220B2
S2140805D0224C17210122A047022018210122A047F9
S2140805E0022019210122A04702201D210122A0472E
S2140805F0022015210122A047012202201621A04729
S214080600174C02201721A04702201821A0470220D5
S2140806100146A04702201D21A04702201521A04719
S21408062002201621A0470F4C022017210022A047BF
S214080630022018210022A047022019210122A047E3
S21408064002201D210022A047022015210022A047D3
S214080650022016210122A047002010BD55020800DE
S21408066059030800A1030800F8B502200022274C09
S2140806700F461921A047022018210122A04700266C
S214080680022018210022A0473B680220F34003F00E
S2140806900102172182F00102A04701360220182124
S2140806A00122A047202E194DEAD102201821002247
S2140806B0A847022019210122A84702201621002255
S2140806C0A847022015210122A84700250220152147
S2140806D00022A047BA8802202A4102F001021D2102
S2140806E082F00102A0470135022015210122A04709
S2140806F0102D064EEAD1022015210022B04702200E
S21408070016210122B0470020F8BD00BFA10308004B
S214080710054B02221A6003F558234FF0807203F542
S214080720C0635A6100207047008000400020704770
S21408073038B5044608784968164D2071A16001222C
S214080740A8472079A168144B9847144B2079A168CC
S21408075001229847002019210222A84700201A21C2
S2140807600222A84700201B210222A8470C4B4FF064
S21408077080721A610B4B02221A600B4A00205A60DC
S2140807801A6B42F4205242F002021A6301221A60DF
S21408079038BD00BF5502080059030800A103080029
S2140807A000060E400080004011000E0019B9034BE9
S2140807B01B699B05FBD50020704700BF00800040E2
S2140807C038B504460D460E4B1B699905FBD5E268FD
S2140807D02AB90C4B2079A16898470123E3602A8838
S2140807E0074BDA601A699205FCD56D682DB9207931
S2140807F0A1680122034B9847E560002038BD00BF7A
S21408080000800040A10308000020704700207047C1
S2140808100020704738B5094C236813F001050AD143
S2140808202046074B984730B1064A074B20461360C8
S214080830064BD5609847034838BD00BFA000002087
S214080840A10C080090000020A80F0800BD0C0800A6
S2140808502DE9F84F02208F4C1C210122A0470120C9
S21408086002461921A0478C4C02201C21A0470120D3
S2140808701921A047894F002219210120B847884E20
S2140808800820B0474FF002091A23864D436080F8C7
S21408089000900446A847036821461B689847DFF877
S2140808A008A22046D047012002461921B847002250
S2140808B01C214846B8470820B0474FF0010BAE2326
S2140808C00380C0F804B00446A847036821469B681E
S2140808D09847D5232380A847036821469B689847EE
S2140808E0A0232380A847036821469B689847A82327
S2140808F02380A84703683F269B682146984726809A
S214080900A847036821469B689847D3232380A847AF
S21408091003684FF000089B6821469847A4F80080B3
S214080920A847036821469B68984740232380A84722
S214080930036821469B689847AD232380A847036829
S21408094021469B6898478E232380A847036821463C
S2140809509B689847D8232380A847036821469B6846
S214080960984705232380A847036821469B6898472D
S214080970A1232380A847036821469B689847C82375
S2140809802380A847036821469B689847DA23238074
S214080990A847036821469B68984712232380A847E0
S2140809A0036821469B68984791232380A8470368D5
S2140809B021469B6898472680A847036821469B6877
S2140809C098472680A847036821469B68984726804C
S2140809D0A847036821469B6898472680A847036867
S2140809E021469B68984781232380A84703682146A9
S2140809F09B6898478F232380A847036821469B68EF
S214080A009847D9232380A847036821469B689847B8
S214080A10D2232380A847036821469B689847DB2390
S214080A202380A847036821469B6898473423238079
S214080A30A847036821469B689847A4232380A847AD
S214080A40036821469B689847A6232380A84703681F
S214080A5021469B68984720232380A8470368214699
S214080A609B689847A4F80080A847036821469B68B7
S214080A709847A8470368414642461B699847484630
S214080A801C215A46B8474FF48466A4F80080A84646
S214080A900CE000BF5502080059030800A10308002F
S214080AA01D0D0800150808002D0D0800C04703682E
S214080AB021469B689847013E0C4DF7D1A847036826
S214080AC031461B693246984732461C210220B847F1
S214080AD0AF2323806660A847036821469B6898472B
S214080AE02046D0473046BDE8F88F00BF15080800F6
S214080AF02DE9F04102200122204B88461C21984708
S214080B001F4B0820984700230380012304464360B0
S214080B104FF405751B4FB847036821469B689847EE
S214080B20013DF7D118F80530238040F2FF139D42A7
S214080B3004BF00236360B847036821469B6898474C
S214080B4005F07F037F2B09D00135B5F5007FE9D185
S214080B5020460D4B98470020BDE8F08140F2FF1371
S214080B609D42F1D00426FF232380B8470368214618
S214080B709B689847013EF6D1E6E700BFA103080048
S214080B801D0D0800150808002D0D080010B5084CA6
S214080B902368DB0709D42046064B984728B1064B3E
S214080BA0064A20461A60064B9847034810BD00BF01
S214080BB0A8000020A10C0800A4000020880F080048
S214080BC0BD0C080070B505460E46A2B999B902686C
S214080BD0094C13604FF6FF739380A04703683146AD
S214080BE01B689847A047036829689B689847A047EA
S214080BF003685B68984770BD8D0B080010B5094CF4
S214080C002368DB070BD42046074B984738B1074BB9
S214080C1008209847064B18602046064B9847044815
S214080C2010BD00BFB0000020A10C08001D0D080074
S214080C30AC000020BD0C080030B50F4BADF5077DA5
S214080C400E4D9847A84700210A460D4B0D4CA04765
S214080C500D4B06A898470D490D4B01A8984701A9C2
S214080C6006A80C4B98470C4B06A89847A84700219F
S214080C700A460A4BA047FEE7BD010800FD0B080020
S214080C80EFBEADDEC50B08005D040800E00F0800E7
S214080C90DD040800B1040800C50408005555AAAAD2
S214080CA008B50368DB0707D443780BB100F009F8EA
S214080CB001234370184608BD002008BD01230360C1
S214080CC0704708B5062000F013F9012000F056F921
S214080CD070B50E4B0E4D0024ED1AAD101E46AC42F4
S214080CE004D056F8242090470134F8E700F07AFA42
S214080CF0084D094B0024ED1AAD101E46AC4204D030
S214080D0056F8242090470134F8E770BDF011080023
S214080D10F0110800F4110800F0110800024B014613
S214080D20186800F059B800BF64000020024B01465E
S214080D30186800F00DB800BF6400002010B5002346
S214080D40934203D0CC5CC4540133F9E710BD0000CD
S214080D5030B500293CD051F8042C0B1F1D49002A39
S214080D60B8BF9B180A680C4612B95A600B6030BDAB
S214080D7093420DD219685818904203D15A58114414
S214080D80426819605A60236030BD994203D80A4603
S214080D9051680029F9D1146815199D420AD11B68B3
S214080DA02344D0188842136012D10868034413609D
S214080DB04B680CE002D90C23036030BD18681C1879
S214080DC08C4203D10C684968204418605960536007
S214080DD030BD00BFB800002070B5CD1C25F0030557
S214080DE008350C2D38BF0C25002D06463FDB8D42F6
S214080DF03DD3214B1C6818462146A1B10B685B1BE6
S214080E000ED40B2B03D90B60CC18CD501FE08C42A8
S214080E1002D1626802601AE04B6863600C4616E00E
S214080E200C464968E9E7154C23681BB9304600F0BC
S214080E3027F820602946304600F022F8431C014671
S214080E4015D0C41C24F0030484420AD1256004F19A
S214080E500B00231D20F00700C31A0BD05A42E2509D
S214080E6070BD3046611A00F00BF80130EED10C2345
S214080E703360002070BD00BFB8000020B40000201A
S214080E8038B5064C002305460846236000F05CF893
S214080E90431C02D1236803B12B6038BDC000002074
S214080EA01F2938B505460C4604D9162303604FF0AB
S214080EB0FF3038BD426C12B152F821304BB9284683
S214080EC000F030F8224601462846BDE8384000F0D3
S214080ED017B8012B0AD0591C03D11623036001202A
S214080EE038BD002542F8245020469847002038BDD3
S214080EF0024B01461868FFF7D3BF00BF6400002006
S214080F0038B5074C0023054608461146236000F00E
S214080F1013F8431C02D1236803B12B6038BD00BF09
S214080F20C000002000F000B8024B58221A604FF0AC
S214080F30FF307047C0000020024B58221A604FF05E
S214080F40FF307047C0000020094A136863B1184490
S214080F506946884202D8106018467047054B0C222E
S214080F601A604FF0FF307047034B1360EFE700BF7F
S214080F70BC000020C000002000000020FEE700BFE4
S214080F800000000000000000CD050800C1050800AC
S214080F9069060800C5050800C90508000000000025
S214080FA000000000000000003107080011070800D4
S214080FB0C10708002D070800AD070800000000005C
S214080FC0000000000000000051080800090808009A
S214080FD0F10A08000D0808001108080000000000C3
S214080FE08020000001FF0000100000010000000043
S214080FF0FFFF0000FF8100041040000104104000BD
S214081000FFFF000001800000100000010010000033
S214081010FFFF0000FFFF000400400001041040002E
S214081020FFFF000001800000100000000000000024
S214081030FFFF00000180000410400001041040007B
S214081040FFFF0000FF8100001000000100100000F4
S214081050FFFF000001FF00040040000104104000EC
S214081060FFFF0000FF8100001000000100000000E4
S214081070FFFF00000180000410400001041040003B
S214081080FFFF0000FF8100001000000100100000B4
S214081090FFFF000001FF000410400001041040009C
S2140810A0FFFF0000FF8100000000000100100000A4
S2140810B0FFFF00000180000410400001040040000B
S2140810C0FFFF0000FF810000100000000010000075
S2140810D0FFFF000001FF000410400001041040005C
S2140810E0FFFF0000FF810000100000010010000054
S2140810F0FFFF0000018000040040000104104000CB
S214081100FFFF000001800000100000010000000042
S214081110FFFF0000FFFF000410400001041040001D
S214081120FFFF000001800000100000010010000012
S214081130FFFF00000180000410400001041040007A
S214081140FFFF0000FF810000000000010010000003
S214081150FFFF000001FF00041040000004004000EC
S214081160FFFF0000FF8100001000000100100000D3
S214081170FFFF00000180000410400001041040003A
S214081180FFFF0000FF8100001000000100100000B3
S214081190FFFF000001FF00040040000104104000AB
S2140811A0FFFF0000FF8100001000000100000000A3
S2140811B0FFFF0000018000041040000104104000FA
S2140811C0FFFF000001800000100000010010000072
S2140811D0FFFF0000FFFF000410400001041040005D
S2140811E0FFFF4300F8B500BFF8BC08BC9E46704732
S2140811F019010800F8B500BFF8BC08BC9E46704741
S208081200F5000800E0
S21408120400093D0000000000000000000000000087
S21408121400000000000000000000000000000000BD
S21408122400000000E21108000000000000000000B2
S214081234000000000000000000000000000000009D
S214081244000000000000000000000000000000008D
S214081254000000000000000000000000000000007D
S20C081264000000000400002051
S804080000F3
