:0200000280007C
:10000000D09200204D010800490108004901080074
:1000100049010800490108004901080000000000EA
:10002000000000000000000000000000490108007E
:1000300049010800000000004901080049010800CA
:100040004901080049010800490108004901080068
:100050004901080049010800490108004901080058
:100060004901080049010800000000004906080095
:10007000590608006906080079060800000000001B
:10008000000000004901080049010800490108007A
:100090004901080049010800490108004901080018
:1000A000490108000000000049010800450208005D
:1000B00049010800490108004901080049010800F8
:1000C00049010800490108004901080049010800E8
:1000D00049010800490108004901080049010800D8
:1000E00049010800490108004901080049010800C8
:1000F0004901080010B5054C237833B9044B13B1FE
:100100000448AFF300800123237010BD6C00002071
:10011000000000005C23080008B5064B1BB1064830
:100120000649AFF300800648036813B1054B03B1DD
:10013000984708BD000000005C2308007000002004
:100140005C23080000000000FEE70000124B134A89
:1001500010B593421C4601D0002301E0104B07E08C
:100160001049D0188842F9D2E158D1500433F7E74A
:100170000D4A934203D2002243F8042BF8E70B4BBD
:100180000B4A23F0604323F07F039360094B9847A9
:10019000094B9847FEE700BF5C23080000000020E1
:1001A0006C0000206C000020CC0200200000080041
:1001B00000ED00E0811E0800710F08001A4A4FF49C
:1001C00080631360C2F80032184B1A6AD20102D55C
:1001D000174A1A6205E0174A1A629A6ED007FCD5D0
:1001E000F6E7996E114AC903FBD5116B21F00301A3
:1001F00041F0010111639A6E1207FCD50E490B4ABA
:1002000091629A6E9007FCD5084A112111639A6E8B
:100210001107FCD5054A122111639A6E1207FCD50D
:10022000064A074B1A607047000A0E4000060E404F
:100230000908370109083700013F0D2000BD0105FD
:100240000000002008B5024B1B68984708BD00BF9E
:1002500088000020032A00F29480DFE802F0023BCD
:100260005775032800F28D80DFE800F0020E1C288D
:10027000444B9A6910055CBF4FF400621A61012378
:1002800003FA01F1404B0AE03E4B9A69D2045CBF8D
:100290004FF480521A61012303FA01F13B4B1960BC
:1002A00059617047374B9A6990045CBF4FF4005214
:1002B0001A61012303FA01F1354BF0E7314B9A69DA
:1002C00052045CBF4FF480421A61012303FA01F12A
:1002D000304BE4E7032854D8DFE800F002070C11A4
:1002E000012303FA01F1284B0DE0012303FA01F188
:1002F000264B08E0012303FA01F1254B03E001231B
:1003000003FA01F1234B196019617047032838D8AB
:10031000DFE800F002070C11012303FA01F11A4B88
:100320000DE0012303FA01F1184B08E0012303FA61
:1003300001F1174B03E0012303FA01F1154B59605A
:100340001A6F22EA01011BE003281AD8DFE800F047
:1003500002070C11012303FA01F10B4B0DE00123FD
:1003600003FA01F1094B08E0012303FA01F1084BFC
:1003700003E0012303FA01F1064B59601A6F1143A0
:100380001967704700060E40000E0E4000100E4028
:1003900000120E4000140E40032817D8DFE800F0CA
:1003A00002070C11012303FA01F1094B0DE00123AF
:1003B00003FA01F1074B08E0012303FA01F1064BB0
:1003C00003E0012303FA01F1044B5966704700BFB3
:1003D000000E0E4000100E4000120E4000140E40A1
:1003E000032817D8DFE800F002070C11012303FAF5
:1003F00001F1094B0DE0012303FA01F1074B08E07D
:10040000012303FA01F1064B03E0012303FA01F192
:10041000044B1966704700BF000E0E4000100E40DE
:1004200000120E4000140E40E2B1012A34D103281C
:1004300032D8DFE800F002070C11012303FA01F1C2
:10044000164B0DE0012303FA01F1154B08E00123DF
:1004500003FA01F1134B03E0012303FA01F1124BFC
:1004600019637047032817D8DFE800F002070C1162
:10047000012303FA01F1094B0DE0012303FA01F115
:10048000074B08E0012303FA01F1064B03E00123C7
:1004900003FA01F1044B5963704700BF000E0E4090
:1004A00000100E4000120E4000140E4003280FD81A
:1004B000DFE800F002040608074B04E0074B02E007
:1004C000074B00E0074BD86BC84000F001007047B5
:1004D0004FF0FF30704700BF000E0E4000100E407E
:1004E00000120E4000140E4010B5032833D8DFE888
:1004F00000F0020F18252B4B1C7814F0080F2CD19C
:1005000044F008041C70284B4FF400641C6024E085
:10051000244B1B785B0722D4234B4FF480541C6080
:100520001DE0204B1C7814F0020F1AD144F0020495
:100530001C701D4B4FF400541C6012E0194B1C78CA
:1005400014F0010F0FD144F001041C70164B4FF44E
:1005500080441C6007E0002306E0144B04E0144BC9
:1005600002E0144B00E0144B43F82120032817D875
:10057000DFE800F002070C11012303FA01F10F4B31
:100580000DE0012303FA01F10D4B08E0012303FA0A
:1005900001F10C4B03E0012303FA01F10A4B19644A
:1005A00010BD00BF8C00002000E100E090000020A2
:1005B000100100209001002010020020000E0E40CB
:1005C00000100E4000120E4000140E4038B50546D3
:1005D000032813D8DFE800F002060A0E0F4B104C78
:1005E000D86C0DE00F4B104CD86C09E00F4B104C41
:1005F000D86C05E00F4B104CD86C01E0002420466D
:100600000E4B98470E4B98470E4B984754F82030A6
:1006100001460BB12846984738BD00BF000E0E407A
:100620009000002000100E401001002000120E402B
:100630009001002000140E40100200201518080040
:1006400019100800151E080008B50020014B984736
:1006500008BD00BFCD05080008B50120014B984733
:1006600008BD00BFCD05080008B50220014B984722
:1006700008BD00BFCD05080008B50320014B984711
:1006800008BD00BFCD05080010B5084C2368DB0786
:1006900009D42046064B984728B1064B064A204607
:1006A0001A60064B9847034810BD00BF9402002013
:1006B000F50F080090020020082308001110080020
:1006C00030B50F4DADF5017D0446A8476846A847F3
:1006D0004FF40072694620460A4B984768460A4B19
:1006E000984720460021094B9847094B98470368D3
:1006F00000211B68984720460DF5017D30BD00BFE5
:10070000610A0800CD1E0800630A0800A30A080059
:10071000890608002DE9F04F012B8BB00390884625
:10072000174603D12F492025082402E007252E492A
:100730002C462E4B05A89847089B93FBF4F304FB2B
:1007400003F9149B03F1FF3A46461AF8013F002BC8
:1007500045D0202B20D02D2B3BD0A3F13002092AED
:1007600002D8A3F12E0218E03F2B34D02E2B34D028
:10077000A3F14102192A02D8A3F1330206E0A3F142
:100780006102192A94BFA3F153020C220A2B04D14F
:100790006B1C1F44FFB2D7E70022624392FBF9F3C0
:1007A00009FB13216B435FFA84FBDAB2DFF848C020
:1007B00005A8C9B25B460095E047314605A83A4610
:1007C0000B4B98475E4405A803990A4B9847F6B22D
:1007D000BBE70122E1E70C22DFE70D22DDE70BB0EA
:1007E000BDE8F08FCE2008008C1F08002508080007
:1007F000490808005D0808004F08080008B50021F6
:10080000014B984708BD00BFA30A080010B5044B70
:1008100004469847036821469B68984710BD00BF6F
:100820008906080030B50D784C7800228270C270BD
:1008300005714471027042700A780231C26011F889
:10084000012C8160026130BD0170427070470371FC
:100850009DF800308170C270437170472DE9F843F4
:100860000446884600266379F5B2AB4226D90023B8
:10087000DAB203F10109237993421DD92378A778CD
:10088000E16817441A44E37894F801E02B4401FB33
:100890000373082193FBF1F3A16807F00707CB5C12
:1008A000AE443B41D1B203F0010340465FFA8EF201
:1008B000034FB8474B46DBE70136D4E7BDE8F88382
:1008C000650A08000020704700207047002300EBF5
:1008D0004302918801339181042B4FF000019180F4
:1008E000F5D10C3070470020704700002DE9F74F1C
:1008F00007460024DFF8B0A0DFF8B09014F80A60D3
:1009000059F82450DFF8A8C0304629460022CDF817
:1009100004C0E047DFF89C801E4A14F8083052F803
:1009200024B01846DDF804C0009359460022E04781
:10093000194A3046294601929047009B594618466D
:10094000019A9047013430462946144A144B98477F
:10095000042C104ECED1002459F824101AF80400AB
:10096000104DA84756F82410834618F80400A847ED
:1009700040EA4B003B195FFA80FB83F814B007EBA9
:10098000440301340020042C9880E5D103B0BDE875
:10099000F08F00BF9022080099030800190A080090
:1009A000E9040800AD040800A0220800CC220800D9
:1009B00055020800C8220800F8B50546002408467C
:1009C000104BE35C834219D10F4B53F824309A4209
:1009D00014D111460D4EB0470D4B0746185D0D4B17
:1009E00053F82410B04764002544AB8887420CBFFD
:1009F000013303F1FF339BB2AB80F8BD0134042C0B
:100A0000DED1F8BDA0220800CC220800AD04080009
:100A1000C82208009022080070B50B4C06462368D7
:100A20000D46DB0709D42046084B984728B1084BF0
:100A3000084A20461A60084B9847054831462A461E
:100A4000064B984770BD00BFB0020020F50F0800AC
:100A500098020020B022080011100800B90908000F
:100A6000704770477F2910B51AD81F2A18D8C2F1CD
:100A70001F04C1F17F0102F00702E410012B01EB1A
:100A8000C411C2F1070204D19340425C13434354A2
:100A900010BD012303FA02F2435C23EA020242542E
:100AA00010BD002301290CBFFF220022C2540133D4
:100AB000B3F5007FF6D17047054B02221A6003F5AB
:100AC00058234FF0807203F5C0635A6100207047CD
:100AD000008000400020704738B504460878496817
:100AE000164D2071A1600122A8472079A168144BFE
:100AF0009847144B2079A1680122984700201921BA
:100B00000222A84700201A210222A84700201B2108
:100B10000222A8470C4B4FF080721A610B4B022245
:100B20001A600B4A00205A601A6B42F4205242F0BD
:100B300002021A6301221A6038BD00BF5502080084
:100B4000E10308002904080000060E400080004070
:100B500011000E0019B9034B1B699B05FBD5002042
:100B6000704700BF0080004038B504460D460E4B6C
:100B70001B699905FBD5E2682AB90C4B2079A1685D
:100B800098470123E3602A88074BDA601A699205C7
:100B9000FCD56D682DB92079A1680122034B9847D7
:100BA000E560002038BD00BF008000402904080037
:100BB00000207047002070470020704738B5094C6E
:100BC000236813F001050AD12046074B984730B13E
:100BD000064A074B20461360064BD56098470348EA
:100BE00038BD00BFC4020020F50F0800B402002089
:100BF000E8220800111008002DE9FF479C4C022054
:100C00001C210122A047012002461921A047994C2E
:100C100002201C21A04701201921A047964F002245
:100C200019210120954DB8474FF002091A2301936D
:100C30008DF80090A847036869461B689847012013
:100C400002461921B84700221C214846B84704AC87
:100C5000AE234FF0010A24F8083DCDF80CA0A847B8
:100C6000036821469B689847D523ADF80830A8470C
:100C7000036821469B689847A023ADF80830A84731
:100C8000036821469B689847A823ADF80830A84719
:100C900003683F269B6821469847ADF80860A8473F
:100CA000036821469B689847D323ADF80830A847CE
:100CB00003684FF000089B6821469847ADF808800C
:100CC000A847036821469B6898474023ADF8083041
:100CD000A847036821469B689847AD23ADF80830C4
:100CE000A847036821469B6898478E23ADF80830D3
:100CF000A847036821469B689847D823ADF8083079
:100D0000A847036821469B6898470523ADF808303B
:100D1000A847036821469B689847A123ADF808308F
:100D2000A847036821469B689847C823ADF8083058
:100D3000A847036821469B689847DA23ADF8083036
:100D4000A847036821469B6898471223ADF80830EE
:100D5000A847036821469B6898479123ADF808305F
:100D6000A847036821469B689847ADF80860A847E4
:100D7000036821469B689847ADF80860A847036858
:100D800021469B689847ADF80860A847036821464C
:100D90009B689847ADF80860A847036821469B68A0
:100DA00098478123ADF80830A847036821469B681F
:100DB00098478F23ADF80830A847036821469B6801
:100DC0009847D923ADF80830A847036821469B68A7
:100DD0009847D223ADF80830A847036821469B689E
:100DE0009847DB23ADF80830A847036821469B6885
:100DF00098473423ADF80830A847036821469B681C
:100E00009847A423ADF80830A847036821469B689B
:100E10009847A623ADF80830A847036821469B6889
:100E200098472023ADF80830A847036821469B68FF
:100E30009847ADF80880A847036821469B68984703
:100E4000A8470368414642461B69984748461C210B
:100E50005246B8474FF48466ADF80880A846C047AC
:100E6000036821469B689847013E044DF7D107E08F
:100E700055020800E103080029040800BD0B080022
:100E8000A847036831461B693246984732461C2101
:100E90000220B847AF23ADF808300396A84703688F
:100EA00021469B689847304604B0BDE8F08700BFF4
:100EB000F7B51F4B0F4602201C2101229847002343
:100EC000ADF80030012301934FF40574194EB0477B
:100ED000036869469B689847013CF7D13B5DADF8D4
:100EE000003040F2FF139C4204BF00230193B0473F
:100EF000036869469B68984704F07F037F2B06D000
:100F00000134B4F5007FE9D1002003B0F0BD40F218
:100F1000FF139C42F4D00425FF23ADF80030B04706
:100F2000036869469B689847013DF5D1E8E700BF33
:100F300029040800BD0B080010B5084C2368DB0726
:100F400009D42046064B984728B1064B064A20464E
:100F50001A60064B9847034810BD00BFB00200203E
:100F6000F50F080098020020B022080011100800B8
:100F70002DE9F041184BADF5047D00249847174E3C
:100F8000174B04A898470394B0470368154D2146B2
:100F90001B68984721462246234604A80095124C18
:100FA000A047DFF84C8004A8104FC04704A8B847FA
:100FB000B0470368DB689847039BB0F9002004A89A
:100FC0001344039303990022C9B213460095A04726
:100FD00004A8C04704A8EAE7BD010800390F0800CB
:100FE000C10608002023080015070800FD070800B7
:100FF0000D08080008B50368DB0707D443780BB178
:1010000000F030FF01234370184608BD002008BDE2
:10101000012303607047000008B500F00DF804A339
:10102000D3E9002300F086FD08BD00BFAFF30080C8
:10103000EF39FAFE422EE63F2DE9F0418AB0044630
:101040000D4600F06DF8DFF8D080064698F90030C4
:101050000F4601330BD02046294600F059FA30B133
:10106000204629460022002300F0CAFE20B1304667
:1010700039460AB0BDE8F081234B98F8006008902B
:10108000CDE90245CDE90445019346BB1F4B4FF026
:101090006042CDE90623204629460022002300F0C5
:1010A00087FE70B102239E42009322D0684600F072
:1010B00057FAF0B1089B0BBBDDE906010AB0BDE8A9
:1010C000F0810123022E00930ED0684600F048FA0A
:1010D00050B10F4800F046FACDE90601EAE70D4BA2
:1010E0000022CDE90623D6E700F0C4FE21230360E9
:1010F000EFE700F0BFFE22230360DBE700F0BAFE5B
:10110000089B0360D8E700BF30230800FFFFEFC74C
:10111000342308000000F0FF04000020000000005D
:101120002DE9F04FB1F5801F87B002460B460F4600
:101130005BDA21F00046064300F0F5800029C0F29A
:10114000A4810022B24B00F0CBFB0F460B46B14905
:1011500002468F426FF035054BDCC7F3130606F5E8
:10116000152101F6647101F4801484F07F5181F43B
:10117000401141EA0603104619460022A64B00F032
:10118000FBF94FEA2758B31CA8F2FF38C3F3130347
:10119000A844022B08EB145882468B464FF00002FD
:1011A0002EDC002300F004FE002800F0C580B8F11A
:1011B000000F00F07181404600F02CFB80A3D3E9C2
:1011C000002306460F4600F08BFB7FA3D3E90023E4
:1011D00004460D463046394600F082FB02460B4677
:1011E0002046294600F0CAF907E08A4900258F42C7
:1011F000B3DD1046194600F0C1F907B0BDE8F08F25
:101200004FF0804300F0BAF902460B46504659466B
:1012100000F090FCCDE90201404600F0FBFACDE978
:101220000401DDE9020102460B4600F059FB0246CB
:101230000B46CDE9000100F053FB65A3D3E9002381
:1012400004460D4600F04CFB63A3D3E9002300F0F5
:1012500095F922462B4600F043FB61A3D3E9002316
:1012600000F08CF922462B4600F03AFB5EA3D3E94E
:10127000002300F083F9DDE9002300F031FB5CA3DB
:10128000D3E90023CDE900012046294600F028FBE0
:1012900059A3D3E9002300F071F922462B4600F050
:1012A0001FFB57A3D3E9002300F068F922462B4621
:1012B00000F016FB0B460246DDE9000100F05EF986
:1012C000A6F5C223C6F5D726A3F27A4351361E43AC
:1012D000002E04460D4657DD0022504B504659461D
:1012E00000F0FEFA52465B4600F0FAFA06460F4658
:1012F000B8F1000F40F0968022462B4600F03EF9F0
:10130000DDE9022300F0ECFA02460B46304639468E
:1013100000F032F902460B465046594600F02CF9CF
:1013200007B0BDE8F08F0022002300203C4900F008
:1013300001FC07B0BDE8F08F52465B465046594667
:1013400000F0CEFA30A3D3E9002304460D46504600
:10135000594600F0C5FA02460B4600202F4900F01E
:101360000BF902460B462046294600F0B9FA04461E
:101370000D46B8F1000F40F0928050465946224683
:101380002B4600F0F9F838E7B8F1000F00F0AB8019
:101390000BA3D3E90023DDE9040100F0A1FA224602
:1013A0002B4606460F465046594600F0E5F8DDE963
:1013B000022300F095FA04460D46DDE904017CE0C5
:1013C0000000E0FE422EE63F763C7935EF39EA3DFB
:1013D00044523EDF12F1C23FDE03CB966446C73F64
:1013E000599322942449D23F935555555555E53F7D
:1013F0009FC678D0099AC33FAF788E1DC571CC3F88
:1014000004FA97999999D93F555555555555D53F52
:1014100000005043FFFFEF7F0000F03F0000E03F7F
:10142000000050C336A3D3E90023DDE9040100F036
:1014300057FA2246804689462B463046394600F008
:101440009DF8DDE9022300F04BFA2FA3D3E9002336
:1014500004460D46DDE9040100F042FA02460B465F
:101460002046294600F08AF802460B4630463946A7
:1014700000F082F852465B4600F07EF802460B46CA
:101480004046494600F078F8B7E600F075F80022CB
:10149000002300F04FFBB0E600200021ADE64046FF
:1014A00000F0B8F916A3D3E900238046894600F07E
:1014B00017FA06460F464046494613A3D3E90023D0
:1014C00000F00EFA02460B462046294600F054F87A
:1014D00052465B4600F050F802460B46304639460D
:1014E00000F04AF889E602460B465046594600F09D
:1014F00043F8DDE9022300F0F3F90BE7AFF30080D6
:101500000000E0FE422EE63F763C7935EF39EA3DB9
:1015100031F0004310B408D00F4AA3F58014944270
:101520000AD804205DF8044B704700280CBF022045
:1015300003205DF8044B7047B3F5801F01D20320F0
:10154000F7E7064A934201D00020F2E7D0F101000C
:1015500038BF0020EDE700BFFFFFDF7F0000F07F16
:101560000020704700200149704700BF0000F87F4D
:1015700081F0004102E000BF83F0004330B54FEA44
:1015800041044FEA430594EA050F08BF90EA020FB1
:101590001FBF54EA000C55EA020C7FEA645C7FEA44
:1015A000655C00F0E2804FEA5454D4EB5555B8BF67
:1015B0006D420CDD2C4480EA020281EA030382EAD8
:1015C000000083EA010180EA020281EA0303362D6A
:1015D00088BF30BD11F0004F4FEA01314FF4801C3D
:1015E0004CEA113102D0404261EB410113F0004F4F
:1015F0004FEA03334CEA133302D0524263EB430306
:1016000094EA050F00F0A780A4F10104D5F1200EA3
:101610000DDB02FA0EFC22FA05F2801841F10001FE
:1016200003FA0EF2801843FA05F359410EE0A5F1D2
:1016300020050EF1200E012A03FA0EFC28BF4CF003
:10164000020C43FA05F3C01851EBE37101F00045B9
:1016500007D54FF0000EDCF1000C7EEB00006EEBC6
:101660000101B1F5801F1BD3B1F5001F0CD3490850
:101670005FEA30004FEA3C0C04F101044FEA4452A7
:1016800012F5800F80F09A80BCF1004F08BF5FEA2E
:10169000500C50F1000041EB045141EA050130BD0E
:1016A0005FEA4C0C404141EB010111F4801FA4F1B1
:1016B0000104E9D191F0000F04BF01460020B1FA06
:1016C00081F308BF2033A3F10B03B3F120020CDA3E
:1016D0000C3208DD02F1140CC2F10C0201FA0CF01C
:1016E00021FA02F10CE002F11402D8BFC2F1200C81
:1016F00001FA02F120FA0CFCDCBF41EA0C01904037
:10170000E41AA2BF01EB0451294330BD6FEA04047F
:101710001F3C1CDA0C340EDC04F11404C4F120026A
:1017200020FA04F001FA02F340EA030021FA04F37C
:1017300045EA030130BDC4F10C04C4F1200220FAD3
:1017400002F001FA04F340EA0300294630BD21FA11
:1017500004F0294630BD94F0000F83F4801306BFD7
:1017600081F480110134013D4EE77FEA645C18BFCB
:101770007FEA655C29D094EA050F08BF90EA020F62
:1017800005D054EA000C04BF1946104630BD91EA5A
:10179000030F1EBF0021002030BD5FEA545C05D15D
:1017A0004000494128BF41F0004130BD14F580049C
:1017B0003CBF01F5801130BD01F0004545F0FE4110
:1017C00041F470014FF0000030BD7FEA645C1ABF45
:1017D000194610467FEA655C1CBF0B46024650EA7C
:1017E000013406BF52EA033591EA030F41F40021A8
:1017F00030BD00BF90F0000F04BF0021704730B52E
:101800004FF4806404F132044FF000054FF0000102
:1018100050E700BF90F0000F04BF0021704730B5C3
:101820004FF4806404F1320410F0004548BF404298
:101830004FF000013EE700BF42004FEAE2014FEAED
:1018400031014FEA02701FBF12F07F4393F07F4FC8
:1018500081F06051704792F0000F14BF93F07F4FFA
:10186000704730B54FF4607401F0004521F000413D
:1018700020E700BF50EA010208BF704730B54FF0C3
:1018800000050AE050EA010208BF704730B511F0C8
:10189000004502D5404261EB41014FF4806404F100
:1018A00032045FEA915C3FF4DCAE4FF003025FEA82
:1018B000DC0C18BF03325FEADC0C18BF033202EB0A
:1018C000DC02C2F1200300FA03FC20FA02F001FA64
:1018D00003FE40EA0E0021FA02F11444C1E600BF03
:1018E00070B54FF0FF0C4CF4E06C1CEA11541DBFB6
:1018F0001CEA135594EA0C0F95EA0C0F00F0DEF881
:101900002C4481EA030621EA4C5123EA4C5350EA65
:10191000013518BF52EA033541F4801143F48013B6
:1019200038D0A0FB02CE4FF00005E1FB02E506F047
:101930000042E0FB03E54FF00006E1FB03569CF09C
:10194000000F18BF4EF0010EA4F1FF04B6F5007FA2
:1019500064F5407404D25FEA4E0E6D4146EB060614
:1019600042EAC62141EA55514FEAC52040EA5E509D
:101970004FEACE2EB4F1FD0C88BFBCF5E06F1ED847
:10198000BEF1004F08BF5FEA500E50F1000041EB7E
:10199000045170BD06F0004646EA010140EA02002B
:1019A00081EA0301B4EB5C04C2BFD4EB0C0541EA4D
:1019B000045170BD41F480114FF0000E013C00F362
:1019C000AB8014F1360FDEBF002001F0004170BD86
:1019D000C4F10004203C35DA0C341BDC04F114049F
:1019E000C4F1200500FA05F320FA04F001FA05F22B
:1019F00040EA020001F0004221F0004110EBD370F8
:101A000021FA04F642EB06015EEA430E08BF20EA23
:101A1000D37070BDC4F10C04C4F1200500FA04F3C6
:101A200020FA05F001FA04F240EA020001F0004158
:101A300010EBD37041F100015EEA430E08BF20EACB
:101A4000D37070BDC4F1200500FA05F24EEA020E13
:101A500020FA04F301FA05F243EA020321FA04F042
:101A600001F0004121FA04F220EA020000EBD370F9
:101A70005EEA430E08BF20EAD37070BD94F0000FF9
:101A80000FD101F00046400041EB010111F4801F2D
:101A900008BF013CF7D041EA060195F0000F18BFDE
:101AA000704703F00046520043EB030313F4801F1A
:101AB00008BF013DF7D043EA0603704794EA0C0FD4
:101AC0000CEA135518BF95EA0C0F0CD050EA4106EA
:101AD00018BF52EA4306D1D181EA030101F0004167
:101AE0004FF0000070BD50EA410606BF104619468F
:101AF00052EA430619D094EA0C0F02D150EA01369B
:101B000013D195EA0C0F05D152EA03361CBF1046DB
:101B100019460AD181EA030101F0004141F0FE417A
:101B200041F470014FF0000070BD41F0FE4141F4FE
:101B3000780170BD70B54FF0FF0C4CF4E06C1CEAFE
:101B400011541DBF1CEA135594EA0C0F95EA0C0FB3
:101B500000F0A7F8A4EB050481EA030E52EA03356E
:101B60004FEA013100F088804FEA03334FF080558F
:101B700045EA131343EA12634FEA022245EA1115BC
:101B800045EA10654FEA00260EF000419D4208BF6D
:101B9000964244F1FD0404F5407402D25B084FEA1A
:101BA0003202B61A65EB03055B084FEA32024FF4C6
:101BB00080104FF4002CB6EB020E75EB030E22BF23
:101BC000B61A754640EA0C005B084FEA3202B6EBE3
:101BD000020E75EB030E22BFB61A754640EA5C0092
:101BE0005B084FEA3202B6EB020E75EB030E22BF22
:101BF000B61A754640EA9C005B084FEA3202B6EB23
:101C0000020E75EB030E22BFB61A754640EADC00E1
:101C100055EA060E18D04FEA051545EA16754FEA43
:101C200006164FEAC30343EA52734FEAC2025FEA61
:101C30001C1CC0D111F4801F0BD141EA00014FF0F0
:101C400000004FF0004CB6E711F4801F04BF0143C1
:101C50000020B4F1FD0C88BFBCF5E06F3FF6AFAEDD
:101C6000B5EB030C04BFB6EB020C5FEA500C50F16D
:101C7000000041EB045170BD0EF0004E4EEA1131F0
:101C800014EB5C04C2BFD4EB0C0541EA045170BDF7
:101C900041F480114FF0000E013C90E645EA060E3B
:101CA0008DE60CEA135594EA0C0F08BF95EA0C0F69
:101CB0003FF43BAF94EA0C0F0AD150EA01347FF4B1
:101CC00034AF95EA0C0F7FF425AF104619462CE788
:101CD00095EA0C0F06D152EA03353FF4FDAE1046EB
:101CE000194622E750EA410618BF52EA43067FF43C
:101CF000C5AE50EA41047FF40DAF52EA43057FF4CC
:101D0000EBAE12E74FF0FF3C06E000BF4FF0010CD6
:101D100002E000BF4FF0010C4DF804CD4FEA410C3A
:101D20007FEA6C5C4FEA430C18BF7FEA6C5C1BD007
:101D300001B050EA410C0CBF52EA430C91EA030F88
:101D400002BF90EA020F0020704710F1000F91EAE5
:101D5000030F58BF994208BF90422CBFD8176FEAB3
:101D6000E37040F0010070474FEA410C7FEA6C5C81
:101D700002D150EA013C07D14FEA430C7FEA6C5C88
:101D8000D6D152EA033CD3D05DF8040B704700BFB4
:101D90008446104662468C461946634600E000BF02
:101DA00001B5FFF7B7FF002848BF10F1000F01BDD4
:101DB0004DF808EDFFF7F4FF0CBF012000205DF89F
:101DC00008FB00BF4DF808EDFFF7EAFF34BF012024
:101DD00000205DF808FB00BF4DF808EDFFF7E0FFBD
:101DE00094BF012000205DF808FB00BF4DF808ED0E
:101DF000FFF7CEFF94BF012000205DF808FB00BF75
:101E00004DF808EDFFF7C4FF34BF012000205DF856
:101E100008FB00BF4FEA410212F5001215D211D59E
:101E20006FF47873B3EB625212D94FEAC12343F0D7
:101E3000004343EA505311F0004F23FA02F018BF59
:101E4000404270474FF00000704750EA013005D122
:101E500011F0004008BF6FF0004070474FF00000E5
:101E6000704700BF08B5062000F062F8012000F0BE
:101E70008BF80000014B1868704700BF6800002015
:101E800070B50E4B0E4D0024ED1AAD101E46AC423F
:101E900004D056F8242090470134F8E700F04EFAB9
:101EA000084D094B0024ED1AAD101E46AC4204D07B
:101EB00056F8242090470134F8E770BD4823080005
:101EC000482308004C2308004823080010B50023CD
:101ED000934203D0CC5CC4540133F9E710BD1F29F1
:101EE00038B505460C4604D9162303604FF0FF3081
:101EF00038BD426C12B152F821304BB9284600F07F
:101F000031F8224601462846BDE8384000F018B8AE
:101F1000012B0AD0591C03D116230360012038BDC0
:101F2000002542F8245020469847002038BD000084
:101F3000024B01461868FFF7D2BF00BF68000020BF
:101F400038B5074C0023054608461146236000F0CB
:101F500013F8431C02D1236803B12B6038BD00BFC6
:101F6000C802002000F000B8024B58221A604FF05F
:101F7000FF307047C8020020024B58221A604FF011
:101F8000FF307047C8020020FEE700BF4028000075
:101F900000000000008000000E82C381F0A000005D
:101FA0000942264310900000090182213898009FC1
:101FB0000401019140A40080848010F941A6000032
:101FC00083E0E3403C9C00008007002000C03E3CD2
:101FD000C70C002000C010920C0CC01060A0088C30
:101FE0000407207110BC081283011091089204119B
:101FF000010090880892048EC0206079709C0030A7
:102000000002032320800008060200202080183FE1
:102010000901009110AC24040981005110D43E0440
:102020000E87803010D402828444904808AA1C8213
:102030008344608808AA00000000000000800000BF
:10204000060300400080140C8984C2F048A22C12C0
:10205000498421214892241187834020248A1289AF
:1020600000429010248612860041601058820000C1
:1020700000000000008000001100000000805412E9
:102080008A0700000080540C0602000000802A0429
:102090000201000000802A0A8100000000801489EB
:1020A000C00300000080FFFFFFFFFFFFFFFFFFFFF7
:1020B000FFFFFFFFFFFFFFFFFFFFFFFFFFFFFFFF30
:1020C000FFFFFFFFFFFFFFFFFFFFFFFFFFFF3840A6
:1020D0000000000000000000000000000000000000
:1020E00000000000000000000000000000000018D8
:1020F0003C7E300000001C3C22300000001E6610B8
:10210000300000001A66083800000018601E380011
:10211000000018603038000000186020380000000F
:1021200018302038000000183060380000001830E7
:10213000603400000018186034007C001818603407
:10214000003E0018186034000000180C60340000D5
:1021500000180C6032000000180C603200000018FB
:1021600006603200000018066032000000180660A9
:10217000320000001806607E0000001806627E0033
:102180000000180622300000007E7E223000000091
:102190007E7E1C30000000000000000000000000F7
:1021A000000000000000000000000000000000002F
:1021B000000000000000000000000000000000001F
:1021C00000000000007E007E181800004640622CCF
:1021D000243C0006206046423C00062060464266E1
:1021E000001E103046426600301030464266002025
:1021F0001818464266002018184642660060081803
:1022000046426000600C1846646000600C0C465842
:10221000600060040C4640600060040C46403000E2
:1022200060060C2C403000601E0C18401800602620
:102230000C3440180060420C6240180060420C628E
:1022400040180060420C6240180060420C62401866
:102250000060421C6240180062420E62440000228C
:10226000420C6224000022240C342418001C180C98
:102270001818180000000000000000000000000016
:10228000000000000000000000000000000000004E
:102290000E00000000000000020000000600000028
:1022A0000100030300000000000000000000000027
:1022B000ED080800C5080800C9080800CD08080096
:1022C000E708080000000000000303031A000000F4
:1022D0000F000000010000000300000000000000EB
:1022E0000000000000000000D90A0800B90A080038
:1022F000690B0800D50A0800550B08000000000013
:102300000000000000000000F90B0800B10B0800FD
:10231000B10E0800B50B0800B90B08000000000062
:1023200068656C6C6F0A776F726C64210000000046
:102330006C6F67000000000043000000F8B500BFAC
:10234000F8BC08BC9E46704719010800F8B500BFEC
:0C235000F8BC08BC9E467047F500080071
:10235C0000093D000100000000000000000000002A
:10236C000000000000000000000000000000000061
:10237C0000000000000000003823080000000000EE
:10238C000000000000000000000000000000000041
:10239C000000000000000000000000000000000031
:1023AC000000000000000000000000000000000021
:0C23BC00000000000000000008000020ED
:040000038000000079
:00000001FF
